:10000000F5C0000021C100001FC100001DC100009B
:100010001BC1000019C1000017C1000015C100007C
:1000200013C1000011C100000FC100000DC100008C
:100030000BC1000009C1000007C1000005C100009C
:1000400003C1000001C10000FFC00000FDC00000AE
:10005000FBC00000F9C00000F7C0000093C300001F
:10006000F3C00000F1C00000EFC00000EDC00000D0
:10007000EBC00000E9C00000E7C00000E5C00000E0
:10008000E3C00000E1C00000DFC00000DDC00000F0
:10009000DBC00000D9C00000D7C00000D5C0000000
:1000A000D3C00000D1C00000CFC00000CDC0000010
:1000B000CBC00000C9C00000C7C00000C5C0000020
:1000C000C3C00000C1C00000BFC00000BDC0000030
:1000D000BBC00000B9C000001FC30000F4C2000094
:1000E000B3C0000000000A0B02090C0D0E08070344
:1000F00004010000000000000000000000000000FB
:1001000000000000000000000000000000000000EF
:1001100012111000000000000000000000000000AC
:100120000000000000000000000000002200250088
:1001300028002B002E0031003400020100000501D0
:1001400008010B0100002100240027002A002D00D7
:100150003000330001010000040107010A01050518
:100160000505070508080808020202020A0A08082D
:10017000040404040101010101010101030303035B
:1001800003030303040707070C0C0C0C0C0C0C0CEA
:100190000202020206060606060606060B0B0B0BFB
:1001A0000B0B0B0B01021020200808102040102020
:1001B000408002010201080402010102040810202B
:1001C0004080804020100804020180040201804029
:1001D0002010080402010804020101020408102092
:1001E00040800102040810204080110511241FBE28
:1001F000CFEFD1E2DEBFCDBF00E00CBF12E0A0E048
:10020000B2E0E0E9FAE000E00BBF02C007900D9217
:10021000A231B107D9F722E0A2E1B2E001C01D92FC
:10022000A93BB207E1F710E0C6EFD0E000E005C05F
:1002300021970109802FFE0121D4C53FD10780E01D
:100240000807B1F7E9D222C4DBCE90E0FC01EC55FF
:10025000FE4F2491825A9E4FFC018491882399F08D
:1002600090E0880F991FFC01EC5BFE4FA591B491C3
:10027000FC01E65DFE4F859194918FB7F894EC9167
:10028000E22BEC938FBF0895AF92BF92CF92DF9293
:10029000EF92FF920F931F93CF93DF936C017B013B
:1002A0008B01040F151FEB015E01AE18BF08C017CC
:1002B000D10759F06991D601ED91FC910190F0813F
:1002C000E02DC6011995892B79F7C501DF91CF91F2
:1002D0001F910F91FF90EF90DF90CF90BF90AF9064
:1002E0000895FC01538D448D252F30E0842F90E03C
:1002F000821B930B541710F0CF9608950197089521
:10030000FC01918D828D981761F0A28DAE0FBF2FE9
:10031000B11D5D968C91928D9F5F9F73928F90E03F
:1003200008958FEF9FEF0895FC01918D828D9817AE
:1003300031F0828DE80FF11D858D90E008958FEFEB
:100340009FEF0895FC01918D228D892F90E0805CB4
:100350009F4F821B91098F73992708958CE192E03A
:10036000F1DF21E0892B09F420E0822F0895FC01C0
:10037000A48DA80FB92FB11DA35ABF4F2C91848D06
:1003800090E001968F739927848FA689B7892C9363
:10039000A089B1898C91837080648C93938D848DB6
:1003A000981306C00288F389E02D80818F7D8083B9
:1003B0000895EF92FF920F931F93CF93DF93EC0179
:1003C00081E0888F9B8D8C8D98131AC0E889F989FC
:1003D000808185FF15C09FB7F894EE89FF896083FF
:1003E000E889F98980818370806480839FBF81E080
:1003F00090E0DF91CF911F910F91FF90EF900895C2
:10040000F62E0B8D10E00F5F1F4F0F731127E02E9C
:100410008C8D8E110BC00FB607FCFACFE889F989D5
:10042000808185FFF5CFCE01A2DFF2CFEB8DEC0FFF
:10043000FD2FF11DE35AFF4FF0829FB7F8940B8F09
:10044000EA89FB8980818062D0CFCF93DF93EC0172
:10045000888D8823B1F0AA89BB89E889F9898C91B4
:1004600085FD03C0808186FD0CC00FB607FCF7CF69
:100470008C9185FFF2CF808185FFEDCFCE0177DFB4
:10048000EACFDF91CF91089580E090E0892B49F089
:1004900080E090E0892B29F00E94000081110E94E9
:1004A000000080E090E0892B49F080E090E0892B0B
:1004B00029F00E94000081110E94000080E090E07D
:1004C000892B49F080E090E0892B29F00E94000000
:1004D00081110E94000080E090E0892B21F03EDF36
:1004E00081110C9400000895282F30E0F901EC519F
:1004F000FF4F9491F901EC55FE4F4491225A3E4F23
:10050000F9012491222309F434C0992309F191506F
:100510009231F0F4E92FF0E08827EF56FD4F8F4F2E
:10052000ADC2C202C602A302BA02BE02A802C9023A
:10053000CF02D302D902DD02E102E702EB02A802F8
:10054000EF02F502F902809180008F77809380009E
:10055000E22FF0E0EE0FFF1FE65DFE4FA591B49194
:100560008FB7F894EC91611148C040954E234C939D
:100570008FBF0895809180008F7DE8CF80918000AB
:10058000877FE4CF84B58F7784BDE2CF84B58F7D3C
:10059000FBCF8091B0008F778093B000D9CF80914E
:1005A000B0008F7DF9CF809190008F77809390007D
:1005B000CFCF809190008F7DF9CF80919000877F81
:1005C000F5CF8091A0008F778093A000C1CF80915C
:1005D000A0008F7DF9CF8091A000877FF5CF80911B
:1005E00020018F7780932001B3CF809120018F7DF0
:1005F000F9CF80912001877FF5CF4E2BB8CF3FB741
:10060000F8948091170290911802A0911902B0916C
:100610001A0226B5A89B05C02F3F19F00196A11D0F
:10062000B11D3FBFBA2FA92F982F8827BC01CD013C
:10063000620F711D811D911D42E0660F771F881F9B
:10064000991F4A95D1F708958F929F92AF92BF92CA
:10065000CF92DF92EF92FF92D2DF4B015C0184EFE9
:10066000C82EDD24D394E12CF12CC9DF6819790957
:100670008A099B09683E734081059105B0F321E02A
:10068000C21AD108E108F10888EE880E83E0981EAE
:10069000A11CB11CC114D104E104F10431F7FF9095
:1006A000EF90DF90CF90BF90AF909F908F90089584
:1006B0008DE2CBDD61E08DE217DF61E088E114DFE0
:1006C00060E089E111CF1F920F920FB60F921124B3
:1006D0000BB60F922F933F934F935F936F937F933C
:1006E0008F939F93AF93BF93EF93FF938CE192E02F
:1006F0003EDEFF91EF91BF91AF919F918F917F91DE
:100700006F915F914F913F912F910F900BBE0F9082
:100710000FBE0F901F9018951F920F920FB60F9259
:1007200011240BB60F922F938F939F93EF93FF9308
:10073000E0912C02F0912D028081E0913202F09143
:10074000330282FD1DC09081809135028F5F8F73CF
:1007500020913602821741F0E0913502F0E0E45E2C
:10076000FD4F958F80933502FF91EF919F918F916F
:100770002F910F900BBE0F900FBE0F901F901895EA
:100780008081F2CF1F920F920FB60F9211242F93F8
:100790003F938F939F93AF93BF9380911302909158
:1007A0001402A0911502B09116023091120223E0BA
:1007B000230F2D3758F50196A11DB11D209312026C
:1007C0008093130290931402A0931502B093160223
:1007D0008091170290911802A0911902B0911A020B
:1007E0000196A11DB11D8093170290931802A0934A
:1007F0001902B0931A02BF91AF919F918F913F91CF
:100800002F910F900FBE0F901F90189526E8230F81
:100810000296A11DB11DD2CF789484B5826084BDAB
:1008200084B5816084BD85B5826085BD85B58160F4
:1008300085BD80916E00816080936E001092810072
:10084000809181008260809381008091810081602D
:1008500080938100809180008160809380008091EE
:10086000B10084608093B1008091B000816080937A
:10087000B0008091910082608093910080919100FE
:1008800081608093910080919000816080939000BE
:100890008091A10082608093A1008091A10081607D
:1008A0008093A1008091A00081608093A00080913E
:1008B00021018260809321018091210181608093D8
:1008C00021018091200181608093200180917A0034
:1008D000846080937A0080917A00826080937A00AD
:1008E00080917A00816080937A0080917A0080689C
:1008F00080937A001092C10086E1A7DC87E1A5DC35
:100900008EE2A3DC88E1A1DC89E19FDC8DE29DDC45
:1009100082E29BDC60E082E2E7DD61E082E2E4DD2E
:1009200093DE60E082E2E0DD8FDE61E082E2DCDD2A
:100930008BDE60E082E2D8DDE0912C02F0912D02A6
:1009400082E08083E0912802F09129021082E091F8
:100950002A02F0912B028FEC808310923402E091F6
:100960003002F091310286E08083E0912E02F09116
:100970002F02808180618083E0912E02F0912F020E
:10098000808188608083E0912E02F0912F02808127
:1009900080688083E0912E02F0912F0280818F7D0C
:1009A00080838CE192E0CEDC181619065CF561E0DC
:1009B00082E29ADD49DE60E082E296DD8CE192E03F
:1009C0009FDC80931B028133F9F48EE23EDC61E010
:1009D0008EE28ADD60E086E187DD61E087E184DD2B
:1009E0008DE233DC61E08DE27FDD60E088E17CDD7B
:1009F00061E089E179DD61E082E276DD25DE60E0BB
:100A000082E272DD41DDCDCF8233E1F751DE50DE8F
:100A100061E082E269DD18DE60E082E265DD14DE1D
:100A2000EACFECE1F2E01382128288EE93E0A0E0DC
:100A3000B0E084839583A683B78384E092E09183BA
:100A4000808385E391E09587848784E391E09787AD
:100A5000868780E391E0918B808B81E391E0938B9B
:100A6000828B82E391E0958B848B86E391E0978B78
:100A7000868B118E128E138E148E0895EE0FFF1F2B
:100A8000881F8BBF0790F691E02D1994F894FFCF43
:100A900000000000D901440171012502A20180017A
:020AA0009401BF
:00000001FF
