:10000000F5C0000023C1000021C100001FC1000095
:100010001DC100001BC1000019C1000017C1000074
:1000200015C1000013C1000011C100000FC1000084
:100030000DC100000BC1000009C1000007C1000094
:1000400005C100005DC6000001C10000FFC0000046
:10005000FDC00000FBC00000F9C0000080C500002A
:10006000F5C0000046C500001BC50000EFC0000041
:10007000EDC00000EBC00000E9C00000E7C00000D8
:1000800012C60000E3C00000E1C00000DFC00000B5
:10009000DDC00000DBC00000D9C00000D7C00000F8
:1000A000D5C00000D3C00000D1C50000CFC0000003
:1000B000CDC00000CBC00000C9C000009AC5000040
:1000C000C5C00000C3C00000C1C0000046C600009B
:1000D000BDC00000BBC00000B9C00000B7C0000038
:1000E000B5C0000000002100240027002A002D00D8
:1000F0003000330001010000040107010A01000083
:100100002200250028002B002E00310034000201BF
:100110000000050108010B01050505050705080894
:100120000808020202020A0A080804040404010181
:100130000101010101010303030303030303040796
:1001400007070C0C0C0C0C0C0C0C0202020206062D
:100150000606060606060B0B0B0B0B0B0B0B010220
:1001600010202008081020401020408002010201C9
:100170000804020101020408102040808040201081
:1001800008040201800402018040201008040201DA
:100190000804020101020408102040800102040842
:1001A0001020408000000A0B02090C0D0E08070306
:1001B000040100000000000000000000000000003A
:1001C000000000000000000000000000000000002F
:1001D00012111000000000000000000000000000EC
:1001E00000000000000000000000FE0611241FBEF9
:1001F000CFEFD1E2DEBFCDBF00E00CBF12E0A0E048
:10020000B2E0E4E9F3E100E00BBF02C007900D9219
:10021000A833B107D9F723E0A8E3B2E001C01D92EB
:10022000A138B207E1F710E0C6EFD0E000E006C069
:1002300021970109802FFE010E94C009C53FD10707
:1002400080E00807A9F70FD60C94C809D9CEAF9261
:10025000BF92CF92DF92EF92FF920F931F93CF93B3
:10026000DF936C017B018B01040F151FEB015E0115
:10027000AE18BF08C017D10759F06991D601ED91AA
:10028000FC910190F081E02DC6011995892B79F739
:10029000C501DF91CF911F910F91FF90EF90DF90FB
:1002A000CF90BF90AF900895FC01538D448D252FC2
:1002B00030E0842F90E0821B930B541710F0CF9600
:1002C000089501970895FC01918D828D981761F032
:1002D000A28DAE0FBF2FB11D5D968C91928D9F5F49
:1002E0009F73928F90E008958FEF9FEF0895FC0128
:1002F000918D828D981731F0828DE80FF11D858DDB
:1003000090E008958FEF9FEF0895FC01918D228D6D
:10031000892F90E0805C9F4F821B91098F739927F2
:1003200008958BED92E0F1DF21E0892B09F420E0C4
:10033000822F0895FC01A48DA80FB92FB11DA35AD7
:10034000BF4F2C91848D90E001968F739927848FF5
:10035000A689B7892C93A089B1898C918370806418
:100360008C93938D848D981306C00288F389E02DB9
:1003700080818F7D80830895EF92FF920F931F936A
:10038000CF93DF93EC0181E0888F9B8D8C8D981348
:100390001AC0E889F989808185FF15C09FB7F89454
:1003A000EE89FF896083E889F989808183708064A0
:1003B00080839FBF81E090E0DF91CF911F910F91EB
:1003C000FF90EF900895F62E0B8D10E00F5F1F4FFA
:1003D0000F731127E02E8C8D8E110BC00FB607FC0A
:1003E000FACFE889F989808185FFF5CFCE01A2DFB8
:1003F000F2CFEB8DEC0FFD2FF11DE35AFF4FF08292
:100400009FB7F8940B8FEA89FB8980818062D0CFF7
:10041000CF93DF93EC01888D8823B1F0AA89BB8943
:10042000E889F9898C9185FD03C0808186FD0CC027
:100430000FB607FCF7CF8C9185FFF2CF808185FF47
:10044000EDCFCE0177DFEACFDF91CF91089580E045
:1004500090E0892B21F065DF81110E94000080E08F
:1004600090E0892B49F080E090E0892B29F00E94F0
:10047000000081110E94000080E090E0892B49F08B
:1004800080E090E0892B29F00E94000081110E94F9
:10049000000080E090E0892B49F080E090E0892B1B
:1004A00029F00E94000081110C9400000895282F6B
:1004B00030E0F901EC55FE4F9491F901E25AFE4FFC
:1004C0004491285E3E4FF9012491222309F434C05F
:1004D000992309F191509231F0F4E92FF0E0882747
:1004E000EC58FD4F8F4F4CC7A502A90286029D0212
:1004F000A1028B02AC02B202B602BC02C002C4026C
:10050000CA02CE028B02D202D802DC0280918000A5
:100510008F7780938000E22FF0E0EE0FFF1FE25014
:10052000FF4FA591B4918FB7F894EC91611148C039
:1005300040954E234C938FBF0895809180008F7D0E
:10054000E8CF80918000877FE4CF84B58F7784BD2A
:10055000E2CF84B58F7DFBCF8091B0008F77809301
:10056000B000D9CF8091B0008F7DF9CF80919000FD
:100570008F7780939000CFCF809190008F7DF9CFBF
:1005800080919000877FF5CF8091A0008F77809336
:10059000A000C1CF8091A0008F7DF9CF8091A000F5
:1005A000877FF5CF809120018F7780932001B3CF93
:1005B000809120018F7DF9CF80912001877FF5CF39
:1005C0004E2BB8CFCF93DF9390E0FC01E25AFE4F61
:1005D0002491885E9E4FFC0184918823D1F090E0A5
:1005E000880F991FFC01EC51FF4FA591B491FC01BC
:1005F000E250FF4FC591D49161110EC09FB7F8949E
:100600008C91E22FE0958E238C932881E223E8835E
:100610009FBFDF91CF9108958FB7F894EC91E22BB3
:10062000EC938FBFF6CF3FB7F8948091D2029091B0
:10063000D302A091D402B091D50226B5A89B05C0E3
:100640002F3F19F00196A11DB11D3FBFBA2FA92F51
:10065000982F8827BC01CD01620F711D811D911D4E
:1006600042E0660F771F881F991F4A95D1F70895BA
:100670008F929F92AF92BF92CF92DF92EF92FF92B2
:100680004B015C01D0DF6B017C01CDDF6C197D0972
:100690008E099F09683E734081059105B0F321E002
:1006A000821A9108A108B10888EEC80E83E0D81E0E
:1006B000E11CF11C81149104A104B10431F7FF90F5
:1006C000EF90DF90CF90BF90AF909F908F90089564
:1006D000CF92DF92EF92FF92CF93DF93EC016032E3
:1006E00082E07807BCF5653B710514F064EB70E0BF
:1006F000898128E830E0281B310987FD3395220FD6
:10070000331F220F331F6901330FEE08FF088A8160
:1007100028E532E0281B310987FD3395220F331F6E
:10072000220F331F032E000C440B550B2C193D09CF
:100730004E095F09DB0177FF02C0B0E0A0E0DDD524
:1007400024EB30E040E050E0B2D5C20ED31EE41EF0
:10075000F51EB601E881E03370F5298188E890E064
:10076000821B910927FD9395880F991F880F991F68
:10077000681779077CF02A8188E592E0821B91094D
:1007800027FD9395880F991F880F991F6817790780
:100790000CF4CB010297880F991F4FB7F8942E2FB6
:1007A00030E0F901EE0FFF1FE20FF31FE35CFD4F96
:1007B000928381834FBFDF91CF91FF90EF90DF90C5
:1007C000CF9008951F93CF93DF93EC01162F88816C
:1007D000803308F04CC061E0812FF4DE8881282F3F
:1007E00030E0F901EE0FFF1FE20FF31FE35CFD4F56
:1007F0001F736081607C612B608319821A822CE0F8
:10080000622FB2D5829FB001112430E020E0AB010D
:10081000420F531FFA01EE0FFF1FE40FF51FE35CB9
:10082000FD4F908196FD16C02F5F3F4F2C30310554
:1008300071F7813009F51092800082E08093810089
:100840001092850010928400B19A80916F008260AE
:1008500080936F00E8818E2F90E0FC01EE0FFF1F68
:10086000E80FF91FE35CFD4F8081806480838881FD
:10087000DF91CF911F910895823061F41092900022
:1008800080939100109295001092940088BB809301
:100890007100E0CF833069F41092A00082E0809371
:1008A000A1001092A5001092A40089BB8093720051
:1008B000D1CF8111CFCF1092200182E0809321010E
:1008C00010922501109224018ABB80937300C2CF3D
:1008D000AF92BF92CF92DF92EF92FF920F931F934E
:1008E000CF93DF936B017A01EC01C85CDD4F288167
:1008F0003CE0389F8001399F100D1124A0903C02EC
:10090000B12C27FF1FC0FB011182108288818F5FED
:10091000888388819801280F311D87FD3A95F6015B
:100920002A153B051CF488818C30BCF180819181B3
:10093000049680349C4908F471C0F601808191814D
:1009400004966EC088819801280F311D87FD3A9565
:100950002A153B05DCF68881A801480F511D87FD4B
:100960005A95FA01EE0FFF1FE40FF51FE35CFD4FF0
:10097000808186FFCBCF8881F801E80FF11D87FDCC
:10098000FA95CF01EE0FFF1FE80FF91FE35CFD4F53
:10099000808160E08F738BDDB9CF80819181288168
:1009A000A801420F511D27FD5A959A01FA01EE0F39
:1009B000FF1FE20FF31FE35CFD4F21813281820FA5
:1009C000931FF7019183808388819801280F311D3F
:1009D00087FD3A95F901EE0FFF1FE20FF31FE35C6D
:1009E000FD4F808186FF21C08881080F111D87FD82
:1009F0001A95F801EE0FFF1FE00FF11FE35CFD4FAA
:100A0000808161E08F73DF91CF911F910F91FF90F3
:100A1000EF90DF90CF90BF90AF9049CD80E49CE9FC
:100A2000F701918380838FEF8883DF91CF911F91AE
:100A30000F91FF90EF90DF90CF90BF90AF9008950F
:100A400061E088E034DD60E087E031CD60E088E09F
:100A50002EDD61E087E02BCD61E084E028DD60E001
:100A600082E025CD60E084E022DD61E082E01FCD00
:100A700060E084E01CDD60E082E019DD60E088E099
:100A800016DD60E087E013CDFC0101900020E9F75E
:100A90003197AF01481B590BBC018BED92E0D7CBCE
:100AA0001F920F920FB60F9211240BB60F922F9335
:100AB0003F934F935F936F937F938F939F93AF93E6
:100AC000BF93EF93FF938BED92E034DCFF91EF91B6
:100AD000BF91AF919F918F917F916F915F914F9156
:100AE0003F912F910F900BBE0F900FBE0F901F9054
:100AF00018951F920F920FB60F9211240BB60F92FA
:100B00002F938F939F93EF93FF93E091EB02F091DC
:100B1000EC028081E091F102F091F20282FD1DC0B1
:100B200090818091F4028F5F8F732091F50282177C
:100B300041F0E091F402F0E0E552FD4F958F809393
:100B4000F402FF91EF919F918F912F910F900BBE27
:100B50000F900FBE0F901F9018958081F2CF1F92BB
:100B60000F920FB60F9211242F933F938F939F9361
:100B7000AF93BF938091CE029091CF02A091D0020B
:100B8000B091D1023091CD0223E0230F2D3758F5DB
:100B90000196A11DB11D2093CD028093CE029093AA
:100BA000CF02A093D002B093D1028091D202909153
:100BB000D302A091D402B091D5020196A11DB11D1E
:100BC0008093D2029093D302A093D402B093D50223
:100BD000BF91AF919F918F913F912F910F900FBE39
:100BE0000F901F90189526E8230F0296A11DB11DA6
:100BF000D2CF1F920F920FB60F9211240BB60F9205
:100C00002F933F934F935F936F937F938F939F9314
:100C1000AF93BF93EF93FF9348E251E064E271E03A
:100C200090E080E055DEFF91EF91BF91AF919F91F1
:100C30008F917F916F915F914F913F912F910F9085
:100C40000BBE0F900FBE0F901F9018951F920F9222
:100C50000FB60F9211240BB60F922F933F934F9321
:100C60005F936F937F938F939F93AF93BF93EF9314
:100C7000FF9348EA50E064EA70E083E090E028DE09
:100C8000FF91EF91BF91AF919F918F917F916F9164
:100C90005F914F913F912F910F900BBE0F900FBE20
:100CA0000F901F9018951F920F920FB60F9211245C
:100CB0000BB60F922F933F934F935F936F937F9356
:100CC0008F939F93AF93BF93EF93FF9348E950E0C7
:100CD00064E970E082E090E0FBDDFF91EF91BF916D
:100CE000AF919F918F917F916F915F914F913F91C4
:100CF0002F910F900BBE0F900FBE0F901F90189565
:100D00001F920F920FB60F9211240BB60F922F93D2
:100D10003F934F935F936F937F938F939F93AF9383
:100D2000BF93EF93FF9348E850E064E870E081E000
:100D300090E0CEDDFF91EF91BF91AF919F918F91A8
:100D40007F916F915F914F913F912F910F900BBECB
:100D50000F900FBE0F901F9018951F920F920FB615
:100D60000F9211240BB60F922F933F934F935F93E3
:100D70006F937F938F939F93AF93BF93EF93FF9363
:100D80008CE192E081DE84E392E07EDE8091D0000F
:100D900087FFFCCF8091D6008093DA028093D60043
:100DA000FF91EF91BF91AF919F918F917F916F9143
:100DB0005F914F913F912F910F900BBE0F900FBEFF
:100DC0000F901F901895FC0190913C02903398F47D
:100DD00081E0890F80933C029083892F90E0FC0191
:100DE000EE0FFF1FE80FF91FE35CFD4F88EB9BE060
:100DF0009283818308958FEF80830895EBEDF2E075
:100E00001382128288EE93E0A0E0B0E084839583A1
:100E1000A683B7838AE092E09183808385EC90E09B
:100E20009587848784EC90E09787868780EC90E0B4
:100E3000918B808B81EC90E0938B828B82EC90E0A5
:100E4000958B848B86EC90E0978B868B118E128E1F
:100E5000138E148E8EE793E0B6DF8BE793E0B3DF5B
:100E600088E793E0B0CF789484B5826084BD84B580
:100E7000816084BD85B5826085BD85B5816085BD95
:100E800080916E00816080936E001092810080914D
:100E900081008260809381008091810081608093D5
:100EA0008100809180008160809380008091B100FA
:100EB00084608093B1008091B00081608093B00025
:100EC0008091910082608093910080919100816077
:100ED0008093910080919000816080939000809138
:100EE000A10082608093A1008091A1008160809325
:100EF000A1008091A00081608093A00080912101D9
:100F00008260809321018091210181608093210181
:100F10008091200181608093200180917A0084601B
:100F200080937A0080917A00826080937A00809129
:100F30007A00816080937A0080917A008068809343
:100F40007A001092C10063E070E08EE793E03ADC33
:100F500066E070E08BE793E035DC6AE070E088E7FC
:100F600093E030DC61E08DE02DDB61E08DE09FDA25
:100F700061E084E027DB61E082E024DB61E088E07F
:100F800021DB61E087E01EDB61E08BE01BDB61E0E1
:100F90008BE08DDA61E08CE015DB61E08CE087DAD4
:100FA00068EE73E080E090E063DB60E08BE07FDA86
:100FB00060E08CE07CDAF89460E080E103DB61E0E3
:100FC00081E100DB1092D0001092D50087E680937B
:100FD000D4008091D20086608093D2008091D100AD
:100FE00088698093D1007894E091EB02F091EC0253
:100FF00082E08083E091E702F091E8021082E091C4
:10100000E902F091EA028FEC80831092F302E09102
:10101000EF02F091F00286E08083E091ED02F09122
:10102000EE02808180618083E091ED02F091EE021A
:10103000808188608083E091ED02F091EE028081F2
:1010400080688083E091ED02F091EE0280818F7DD7
:10105000808388E192E018DDE091DA02E053EA3023
:10106000E8F40E2E000CFF0B8827E75CF74F8F4F3C
:1010700087C1430846085008520855088808BD082B
:10108000E0080A093409E2DCEDDC02C0D9DCE4DC6A
:1010900061E08BE00CDA60E08CE009DAD8D9DCCFD3
:1010A000CFDCF2CFD9DCD2DCF3CF8091000290917B
:1010B00001028C010B5F1F4F1093D7020093D602E1
:1010C00003381105F0F49093D9028093D802C091AF
:1010D000D802D091D9020C171D0798F0BE018BE7FA
:1010E00093E0F6DAD0930102C09300026FE070E063
:1010F00080E090E0BDDA2196D093D902C093D80267
:10110000E6CFB6DC61E08CE0D2D960E08BE0C5CF01
:1011100061E08CE0CCD960E08BE0C9D9A9DC80919A
:101120000002909101028C01055011091093D70221
:101130000093D6020233110508F4B0CF9093D90280
:101140008093D802C091D802D091D902C017D1079C
:1011500008F4A4CFBE018BE793E0BADAD093010282
:10116000C09300026FE070E080E090E081DA2197A8
:10117000D093D902C093D802E5CF8091020290911A
:1011800003029093D9028093D802C091D802D091E3
:10119000D902C937D10508F0B4CFBE018EE793E07C
:1011A00097DAD0930302C09302026FE070E080E010
:1011B00090E05EDA2196D093D902C093D802E5CFB1
:1011C00057DC61E08CE073D960E08BE070D98091EE
:1011D0000202909103029093D9028093D802C091A9
:1011E000D802D091D902C634D10508F457CFBE0138
:1011F0008EE793E06DDAD0930302C09302026FE0B2
:1012000070E080E090E034DA2197D093D902C09367
:10121000D802E5CF61E08CE04AD960E08BE047D9A5
:1012200080910402909105029093D9028093D80294
:10123000C091D802D091D902C436D10598F0BE0130
:1012400088E793E045DAD0930502C09304026FE08B
:1012500070E080E090E00CDA2197D093D902C0933F
:10126000D802E6CF05DC1ACF8091040290910502E6
:101270009093D9028093D802C091D802D091D9021C
:10128000C739D10508F03DCFBE0188E793E020DAE9
:10129000D0930502C09304026FE070E080E090E01C
:1012A000E7D92196D093D902C093D802E5CF052E75
:1012B00097FB16F400940FD057FD05D024D007FCFF
:1012C00002D046F408C050954095309521953F4F87
:1012D0004F4F5F4F089590958095709561957F4F22
:1012E0008F4F9F4F089531D0A59F900DB49F900DC3
:1012F000A49F800D911D11240895B7FFF4CFF3DF53
:10130000821B930B0895A1E21A2EAA1BBB1BFD01A1
:101310000DC0AA1FBB1FEE1FFF1FA217B307E407D4
:10132000F50720F0A21BB30BE40BF50B661F771F2C
:10133000881F991F1A9469F760957095809590950C
:101340009B01AC01BD01CF010895A29FB001B39FE5
:10135000C001A39F700D811D1124911DB29F700DBE
:10136000811D1124911D0895991B79E004C0991FD6
:10137000961708F0961B881F7A95C9F780950895EF
:10138000EE0FFF1F881F8BBF0790F691E02D199479
:04139000F894FFCFFF
:101394001E005A00190000000000BC01270154017E
:1013A4000802850163017701313233007265636598
:1013B40069766520696E74657272757074206F63E6
:0813C400637572000D0A0000C0
:00000001FF
