:100000000C945D000C9485000C9485000C94850084
:100010000C9485000C9485000C9485000C9485004C
:100020000C9485000C9485000C9485000C949A0225
:100030000C9485000C9485000C9485000C9485002C
:100040000C9450020C9485000C9456030C9485007B
:100050000C9485000C9485000C9485000C9485000C
:100060000C9485000C94850000000008000201003B
:100070000003040700000000000000000000000072
:10008000250028002B0000000000240027002A0083
:10009000040404040404040402020202020203032E
:1000A0000303030301020408102040800102040836
:1000B00010200102040810206A0511241FBECFEF92
:1000C000D8E0DEBFCDBF11E0A0E0B1E0EAEDFBE09B
:1000D00002C005900D92A630B107D9F721E0A6E045
:1000E000B1E001C01D92A334B207E1F710E0CDE505
:1000F000D0E004C02197FE010E94E505CC35D10770
:10010000C9F70E9481030C94EB050C94000090E069
:10011000FC01EC55FF4F249180579F4FFC018491C7
:10012000882399F090E0880F991FFC01EA57FF4F50
:10013000A591B491FC01E458FF4F859194918FB73C
:10014000F894EC91E22BEC938FBF089590E0FC01C2
:10015000E859FF4F2491FC01EC55FF4F3491FC010D
:10016000E057FF4FE491EE23C9F0222339F023300A
:1001700001F1A8F4213019F1223029F1F0E0EE0F5D
:10018000FF1FE458FF4FA591B4918FB7F894EC91FD
:10019000611126C030953E233C938FBF08952730D0
:1001A000A9F02830C9F0243049F7809180008F7D74
:1001B00003C0809180008F7780938000DFCF84B56B
:1001C0008F7784BDDBCF84B58F7DFBCF8091B0006E
:1001D0008F778093B000D2CF8091B0008F7DF9CF20
:1001E0003E2BDACF3FB7F8948091310190913201E4
:1001F000A0913301B091340126B5A89B05C02F3FD3
:1002000019F00196A11DB11D3FBFBA2FA92F982F3C
:100210008827BC01CD01620F711D811D911D42E037
:10022000660F771F881F991F4A95D1F708958F92FF
:100230009F92AF92BF92CF92DF92EF92FF924B01CB
:100240005C010E94F2006B017C010E94F2006C19BB
:100250007D098E099F09683E734081059105A8F3C9
:1002600021E0821A9108A108B10888EEC80E83E047
:10027000D81EE11CF11C81149104A104B10429F7DA
:10028000FF90EF90DF90CF90BF90AF909F908F90B6
:100290000895CF92DF92EF92FF92CF93DF93EC011C
:1002A000603282E07807CCF5653B710514F064EBB1
:1002B00070E0898128E830E0281B310987FD3395FB
:1002C000220F331F220F331F6901330FEE08FF087F
:1002D0008A8128E532E0281B310987FD3395220FFA
:1002E000331F220F331F032E000C440B550B2C1908
:1002F0003D094E095F09DB0177FF02C0B0E0A0E0D5
:100300000E94A00524EB30E040E050E00E9476051A
:10031000C20ED31EE41EF51EB601E881EC3070F566
:10032000298188E890E0821B910927FD9395880F29
:10033000991F880F991F681779077CF02A8188E533
:1003400092E0821B910927FD9395880F991F880FD2
:10035000991F681779070CF4CB010297880F991F32
:100360004FB7F8942E2F30E0F901EE0FFF1FE20F88
:10037000F31FE85FFE4F928381834FBFDF91CF91E0
:10038000FF90EF90DF90CF9008951F93CF93DF936E
:10039000EC01162F88818C3008F04DC0862F0E940A
:1003A00087008881282F30E0F901EE0FFF1FE20F50
:1003B000F31FE85FFE4F1F736081607C612B6083D9
:1003C00019821A822CE0622F0E94D905829FB00107
:1003D000112430E020E0AB01420F531FFA01EE0F71
:1003E000FF1FE40FF51FE85FFE4F908196FD16C0DA
:1003F0002F5F3F4F2C30310571F781110FC01092E4
:10040000800082E080938100109285001092840029
:10041000B19A80916F00826080936F00E8818E2F87
:1004200090E0FC01EE0FFF1FE80FF91FE85FFE4FA1
:100430008081806480838881DF91CF911F910895AE
:1004400061E088E00E94A60060E087E00C94A600CE
:1004500060E088E00E94A60061E087E00C94A600BE
:1004600061E084E00E94A60060E082E00C94A600B7
:1004700060E084E00E94A60061E082E00C94A600A7
:1004800060E084E00E94A60060E082E00E94A60096
:1004900060E088E00E94A60060E087E00C94A6007F
:1004A0001F920F920FB60F9211242F933F938F93A9
:1004B0009F93AF93BF9380912D0190912E01A091B6
:1004C0002F01B091300130912C0123E0230F2D3703
:1004D00058F50196A11DB11D20932C0180932D018B
:1004E00090932E01A0932F01B093300180913101A0
:1004F00090913201A0913301B09134010196A11D78
:10050000B11D8093310190933201A0933301B093D8
:100510003401BF91AF919F918F913F912F910F9097
:100520000FBE0F901F90189526E8230F0296A11D6D
:10053000B11DD2CF1F920F920FB60F9211242F939D
:100540003F934F935F936F937F938F939F93AF935B
:10055000BF93CF93DF93EF93FF9380910601C091F8
:100560000701D0E087FF24C010928500109284001C
:10057000809106018F5F8093060180910601082E0D
:10058000000C990B8C179D0724F4809106018C3088
:10059000C4F18091840090918500049680349C4938
:1005A00008F47AC08091840090918500049676C00A
:1005B00080910601082E000C990B8C179D07C4F63C
:1005C000E09106018E2FEE0F990BFC01EE0FFF1F3D
:1005D000E80FF91FE85FFE4F808186FFC9CFE091E9
:1005E00006018E2FEE0F990BFC01EE0FFF1FE80F97
:1005F000F91FE85FFE4F808160E08F730E94A600C4
:10060000B7CF2091840030918500E09106018E2FB4
:10061000EE0F990BFC01EE0FFF1FE80FF91FE85FCB
:10062000FE4F81819281820F931F90938900809366
:100630008800E09106018E2FEE0F990BFC01EE0F62
:10064000FF1FE80FF91FE85FFE4F808186FF11C092
:10065000E09106018E2FEE0F990BFC01EE0FFF1FAC
:10066000E80FF91FE85FFE4F808161E08F730E9401
:10067000A600FF91EF91DF91CF91BF91AF919F9134
:100680008F917F916F915F914F913F912F910F903B
:100690000FBE0F901F90189580E49CE990938900FD
:1006A000809388008FEF80930601E3CF1F920F9213
:1006B0000FB60F9211248F938091C6008093420150
:1006C0008F910F900FBE0F901F901895FC01909185
:1006D00007019C3098F481E0890F80930701908393
:1006E000892F90E0FC01EE0FFF1FE80FF91FE85F74
:1006F000FE4F88EB9BE09283818308958FEF808388
:100700000895789484B5826084BD84B5816084BD89
:1007100085B5826085BD85B5816085BD80916E009F
:10072000816080936E0010928100809181008260D0
:10073000809381008091810081608093810080910D
:1007400080008160809380008091B10084608093FC
:10075000B1008091B00081608093B00080917A00F8
:10076000846080937A0080917A00826080937A001E
:1007700080917A00816080937A0080917A0080680D
:1007800080937A001092C10063E070E08AE391E008
:100790000E94C50166E070E085E391E00E94C5011A
:1007A0006AE070E08DE391E00E94C5018DE00E9457
:1007B000870061E08DE00E94A60084E00E9487002F
:1007C00082E00E94870088E00E94870087E00E9404
:1007D00087008BE00E94870061E08BE00E94A6000A
:1007E0008CE00E94870061E08CE00E94A60068EE29
:1007F00073E080E090E00E94170160E08BE00E94CF
:10080000A60060E08CE00E94A60087E690E090934E
:10081000C5008093C4008091C20086608093C200AE
:100820008091C10088698093C100789400E010E055
:10083000E0914201E053EA3010F50E2E000CFF0B60
:10084000EC5DFB4F0C94E5052E043304450448048D
:100850004D048604C204E704160545050E942802DB
:100860000E94380204C00E9420020E94300261E00F
:100870008BE00E94A60060E08CE00E94A6000115BB
:100880001105B1F20E940000D3CF0E942002E8CFF0
:100890000E9430020E942802EACF809100019091CC
:1008A00001017C0125E0E20EF11CF0923901E09299
:1008B000380123E8E216F10400F59093410180939A
:1008C0004001C0914001D0914101EC16FD06A8F015
:1008D000BE0185E391E00E944901D0930101C093DC
:1008E00000016FE070E080E090E00E941701219627
:1008F000D0934101C0934001E4CF0E94400261E0E7
:100900008CE00E94A60060E08BE0B7CF61E08CE055
:100910000E94A60060E08BE00E94A6000E944002B8
:1009200080910001909101017C0125E0E21AF1081B
:10093000F0923901E092380122E3E216F10408F462
:100940009ECF9093410180934001C0914001D0918E
:100950004101CE15DF0508F492CFBE0185E391E099
:100960000E944901D0930101C09300016FE070E043
:1009700080E090E00E9417012197D0934101C0933D
:100980004001E3CF809102019091030190934101D6
:1009900080934001C0914001D0914101C937D105F8
:1009A00008F0ABCFBE018AE391E00E944901D093E9
:1009B0000301C09302016FE070E080E090E00E94CC
:1009C00017012196D0934101C0934001E3CF0E94CB
:1009D000400261E08CE00E94A60060E08BE00E9493
:1009E000A6008091020190910301909341018093B0
:1009F0004001C0914001D0914101C634D10508F4B5
:100A00003ECFBE018AE391E00E944901D0930301E9
:100A1000C09302016FE070E080E090E00E94170157
:100A20002197D0934101C0934001E3CF61E08CE076
:100A30000E94A60060E08BE00E94A6008091040165
:100A4000909105019093410180934001C091400134
:100A5000D0914101C436D105A8F0BE018DE391E0EB
:100A60000E944901D0930501C09304016FE070E03A
:100A700080E090E00E9417012197D0934101C0933C
:100A80004001E4CF0E944002FACE8091040190918F
:100A900005019093410180934001C0914001D091A4
:100AA0004101C739D10508F028CFBE018DE391E09F
:100AB0000E944901D0930501C09304016FE070E0EA
:100AC00080E090E00E9417012196D0934101C093ED
:100AD0004001E3CF8AE391E00E94660385E391E061
:100AE0000E9466038DE391E00C946603052E97FB4C
:100AF0001EF400940E948D0557FD07D00E94A805A2
:100B000007FC03D04EF40C948D055095409530951C
:100B100021953F4F4F4F5F4F089590958095709569
:100B200061957F4F8F4F9F4F08950E94CA05A59FE3
:100B3000900DB49F900DA49F800D911D11240895D8
:100B4000B7FF0C9495050E949505821B930B0895A1
:100B5000A1E21A2EAA1BBB1BFD010DC0AA1FBB1FC1
:100B6000EE1FFF1FA217B307E407F50720F0A21B33
:100B7000B30BE40BF50B661F771F881F991F1A94A0
:100B800069F760957095809590959B01AC01BD01CA
:100B9000CF010895A29FB001B39FC001A39F700D24
:100BA000811D1124911DB29F700D811D1124911D75
:100BB0000895991B79E004C0991F961708F0961BB9
:100BC000881F7A95C9F780950895EE0FFF1F05904D
:0A0BD000F491E02D0994F894FFCF92
:060BDA001E005A00190084
:00000001FF
